:100000001DC0B9C02BC02AC029C028C027C026C027
:1000100025C024C023C022C021C020C01FC005A805
:100020004CCDB2D44EB93836A9020C50B99186885D
:10003000083CA6AAAA2ABE000000803F11241FBEC9
:10004000CFE5D2E0DEBFCDBF20E0A0E6B0E001C04A
:100050001D92AD3CB207E1F71AD10CC5D1CFC098C3
:10006000B89AF8946150710908F41FC0FC0101901E
:10007000008007D0029005D001900190019001D03E
:1000800012C008D007D006D005D004D003D002D0CB
:1000900001D00895001CC09A08F0C098000000002C
:1000A00008F4C0980895CF01DDCF789425ED2A9506
:1000B000F1F700000895681779070CF4CB01089553
:1000C000861797070CF4CB0108958F3F910519F01F
:1000D00014F08FEF90E097FF02C080E090E0089569
:1000E0008F929F92AF92BF92CF92DF92EF92FF9248
:1000F0004B015C0124D36B017C01C501B4014CD4DC
:100100004B015C01A7019601C701B601DAD36B016F
:100110007C01F7FAF094F7F8F094A5019401C50179
:10012000B401A9D29B01AC01C701B601A3D220E062
:1001300030E040E05FE3C5D320E030E040E453E44A
:10014000C0D320E030E040E053E495D2FBD2CB01B5
:100150006F3F710519F014F08FEF90E097FF02C028
:1001600080E090E0FF90EF90DF90CF90BF90AF9055
:100170009F908F9008951F920F920FB60F921124A7
:100180002F938F939F93B2990CC081E0809360006E
:100190002FE788E391E0215080409040E1F700C0D4
:1001A00000009F918F912F910F900FBE0F901F9085
:1001B0001895CF93DF93D82FC0E0CD1771F18091C0
:1001C000600081112AC062E170E081E690E047DFC3
:1001D0002FEF83EC99E0215080409040E1F700C080
:1001E00000008BB780648BBF789480916000811190
:1001F00012C062E170E087E990E031DF2FEF83EC1D
:1002000099E0215080409040E1F700C000008BB79A
:1002100080648BBF7894CF5FD0CFDF91CF9108956A
:10022000CF93DF93D82FC0E0CD1771F1809160009C
:1002300081112AC062E170E081E690E010DF2FEFCB
:1002400087E893E1215080409040E1F700C0000032
:100250008BB780648BBF789480916000811112C04D
:1002600062E170E087E990E0FADE2FEF87E893E142
:10027000215080409040E1F700C000008BB78064BF
:100280008BBF7894CF5FD0CFDF91CF910895C29A82
:10029000812C912C54017DEC272E70E0372E0FEF2E
:1002A00010E0E7E96E2EE0E07E2E80916000811183
:1002B000CAC0C0E0D0E0509060005110F6CF26E6F2
:1002C00036E646EA5FE3C501B401FBD209DF6C0103
:1002D0002DEC3CEC4CE45FE3C501B401F2D22FE815
:1002E00032EC45E050E4C7D1FBDE7C012AE939E974
:1002F00049E95FE3C501B401E4D22FE832EC45E8F7
:1003000050E4B9D1EDDE282FCE01969587959695CC
:100310008795382FCE0196958795482FE1E6F0E036
:10032000832F850D90E0B60180D1B8018FD1608315
:10033000842F850D90E0B70178D1B80187D1618312
:10034000228388EF580E339690E75912E9CF62E185
:1003500070E081E690E083DE8FE39CE90197F1F79E
:1003600000C0000064962AE037ED43EA5BE3C50174
:10037000B40181D14B015C0124E13EEA47E451E440
:100380009CD218161CF4812C912C54018BB78064DC
:100390008BBF7894C03593ECD90709F08CCF80914E
:1003A0006000811182CF2AE939E949E15FE3C501A3
:1003B000B40187D295DEC82F26E636E646EA5FE32B
:1003C000C501B4017ED22FE832EC45E050E453D1B0
:1003D00087DED82F23E333E343E35FE3C501B401B2
:1003E00070D22FE832EC45E850E445D179DEE1E601
:1003F000F0E08083D183C28333966E167F06C9F7FF
:1004000062E170E081E690E02ADE8FE59AEE0197E6
:10041000F1F700C000002AE037ED43E25CE3C501DC
:10042000B40129D14B015C0124E13EEA47E451E4E7
:1004300044D218161CF4812C912C54018BB7806483
:100440008BBF7894ACCF10926000812C912C54011A
:100450008091600081114BC026E636E646EA5FE3F4
:10046000C501B4012ED23CDED82F2DEC3CEC4CE47F
:100470005FE3C501B40125D22FE832EC45E050E43A
:10048000FAD02EDEC82F2AE939E949E95FE3C50130
:10049000B40117D22FE832EC45E850E4ECD020DE6E
:1004A000E1E6F0E0D083C1838283339690E0E739C0
:1004B000F907C1F762E170E081E690E0D0DD8FE3FB
:1004C0009CE90197F1F700C000002AE037ED43E214
:1004D0005CE3C501B401CFD04B015C0124E13EEAED
:1004E00047E451E4EAD118160CF0B2CFAECF109227
:1004F000600080916000811176C0C0E0D0E0809102
:10050000600081115EC09E0136952795369527952E
:10051000E1E6F0E0322F3095922F980F908391838F
:10052000932F981B9283885033968037A9F762E106
:1005300070E081E690E093DD8FE39CE90197F1F7AD
:1005400000C000006496C13496E0D90720F091E025
:10055000C0E0D0E001C090E08BB780648BBF78949E
:10056000992369F22EC0CE01969587959695879529
:10057000482FE1E6F0E020E030E043AB842F8095A7
:1005800084AB842F90E0B90161D065AB2F5F3F4F02
:10059000485033972231310581F762E170E081E6FE
:1005A00090E05DDD8FE39CE90197F1F700C000006A
:1005B00064968BB780648BBF7894C93B9BE0D90766
:1005C00020F480916000882371F280916000811195
:1005D00090CF2FEF89E698E1215080409040E1F7DD
:1005E00000C0000086CF10926000E7E9F0E01082C2
:1005F0001182128233962E163F06C9F78091600051
:10060000811110C083E0D5DD83E00ADE83E0D1DD17
:100610002FEF89E698E1215080409040E1F700C03B
:100620000000ECCF1092600040CE0024552704C09B
:10063000080E591F880F991F009729F07695679526
:10064000B8F37105B9F7802D952F0895AA1BBB1B30
:1006500051E107C0AA1FBB1FA617B70710F0A61BC2
:10066000B70B881F991F5A95A9F780959095BC01E3
:10067000CD0108955058BB27AA270ED0D3C09CD0D7
:1006800030F0A1D020F031F49F3F11F41EF491C05E
:100690000EF4E095E7FB87C0E92FE6D080F3BA17A8
:1006A000620773078407950718F071F49EF5FEC082
:1006B0000EF4E0950B2EBA2FA02D0B01B90190017D
:1006C0000C01CA01A0011124FF27591B99F0593FC1
:1006D00050F4503E68F11A16F040A22F232F342F09
:1006E0004427585FF3CF469537952795A795F04057
:1006F0005395C9F77EF41F16BA0B620B730B840B6C
:10070000BAF09150A1F0FF0FBB1F661F771F881F23
:10071000C2F70EC0BA0F621F731F841F48F487957B
:1007200077956795B795F7959E3F08F0B3CF93956A
:10073000880F08F09927EE0F9795879508954BD06D
:10074000E39581C004D06894B111B1C0089594D0EC
:1007500088F09F5790F0B92F9927B751A0F0D1F0AA
:10076000660F771F881F991F1AF0BA95C9F712C034
:10077000B13081F09BD0B1E0089598C0672F782FF9
:100780008827B85F39F0B93FCCF3869577956795A0
:10079000B395D9F73EF490958095709561957F4F0C
:1007A0008F4F9F4F089597F99F6780E870E060E052
:1007B00008959FEF80EC089500240A9416161706FA
:1007C00018060906089500240A9412161306140642
:1007D00005060895EECF50D0E8F3E894E0E0BB279B
:1007E0009F57F0F02AED3FE049EC06C0EE0FBB0F3B
:1007F000661F771F881F28F0B23A620773078407C5
:1008000028F0B25A620B730B840BE3959A9572F73A
:10081000803830F49A95BB0F661F771F881FD2F778
:100820009048E6C0092E0394000C11F4882352F07E
:10083000BB0F40F4BF2B11F460FF04C06F5F7F4F0C
:100840008F4F9F4F0895EF93E0FF06C0A2EA2AED75
:100850003FE049EC5FEB20DFE5DF0F90039401FC04
:100860009058EEE1F0E0D0C057FD9058440F551F6E
:1008700059F05F3F71F04795880F97FB991F61F022
:100880009F3F79F087950895121613061406551F99
:10089000F2CF4695F1DF08C0161617061806991F05
:1008A000F1CF86957105610508940895E894BB27FA
:1008B00066277727CB0197F9089574D008F48FEF56
:1008C00008950AD0AFCF78DF28F07DDF18F09523A8
:1008D00009F069CF6ECFEBCFC7DFA8F39923D9F327
:1008E0005523C9F3950F50E0551FAA27EE27FF2780
:1008F000BB2700240894679520F4E20FF31FB41F70
:100900000A1E220F331F441FAA1F6695A9F7779569
:1009100030F4F30FB41F0A1E121E08F46395330F50
:10092000441FAA1F221F769599F7879520F4B40FCC
:100930000A1E121E631F440FAA1F221F331F869513
:10094000A9F7862F712D602D11249F5750408AF0F2
:10095000E1F088234AF0EE0FFF1FBB1F661F771FD1
:10096000881F91505040A9F79E3F510570F01BCF52
:100970009ECF5F3FECF3983EDCF3869577956795C5
:10098000B795F795E7959F5FC1F7FE2B880F911DEF
:100990009695879597F908959F931DDF0F9007FC13
:1009A000EE5F51CF990F0008550FAA0BE0E8FEEF5C
:1009B00016161706E807F907C0F012161306E40723
:1009C000F50798F0621B730B840B950B39F40A261C
:1009D00061F0232B242B252B21F408950A2609F4FA
:1009E000A140A6958FEF811D811D08959F3F31F095
:1009F000915020F4879577956795B795880F911D4D
:100A00009695879597F908959F938F937F936F930A
:100A1000FF93EF939B01AC0154DFEF91FF9105D061
:100A20002F913F914F915F914CCFDF93CF931F93C5
:100A30000F93FF92EF92DF927B018C01689405C0C7
:100A4000DA2EEF0149DFFE01E894A5912591359159
:100A500045915591AEF3EF011FDEFE019701A8010C
:100A6000DA9479F7DF90EF90FF900F911F91CF917B
:080A7000DF910895F894FFCF17
:00000001FF
